{
  "contractName": "OliveOilQualityAssurance",
  "abi": [
    {
      "inputs": [],
      "stateMutability": "nonpayable",
      "type": "constructor"
    },
    {
      "anonymous": false,
      "inputs": [
        {
          "indexed": true,
          "internalType": "address",
          "name": "owner",
          "type": "address"
        },
        {
          "indexed": true,
          "internalType": "address",
          "name": "approved",
          "type": "address"
        },
        {
          "indexed": true,
          "internalType": "uint256",
          "name": "tokenId",
          "type": "uint256"
        }
      ],
      "name": "Approval",
      "type": "event"
    },
    {
      "anonymous": false,
      "inputs": [
        {
          "indexed": true,
          "internalType": "address",
          "name": "owner",
          "type": "address"
        },
        {
          "indexed": true,
          "internalType": "address",
          "name": "operator",
          "type": "address"
        },
        {
          "indexed": false,
          "internalType": "bool",
          "name": "approved",
          "type": "bool"
        }
      ],
      "name": "ApprovalForAll",
      "type": "event"
    },
    {
      "anonymous": false,
      "inputs": [
        {
          "indexed": true,
          "internalType": "address",
          "name": "from",
          "type": "address"
        },
        {
          "indexed": true,
          "internalType": "address",
          "name": "to",
          "type": "address"
        },
        {
          "indexed": true,
          "internalType": "uint256",
          "name": "tokenId",
          "type": "uint256"
        }
      ],
      "name": "Transfer",
      "type": "event"
    },
    {
      "inputs": [
        {
          "internalType": "address",
          "name": "to",
          "type": "address"
        },
        {
          "internalType": "uint256",
          "name": "tokenId",
          "type": "uint256"
        }
      ],
      "name": "approve",
      "outputs": [],
      "stateMutability": "nonpayable",
      "type": "function"
    },
    {
      "inputs": [
        {
          "internalType": "address",
          "name": "owner",
          "type": "address"
        }
      ],
      "name": "balanceOf",
      "outputs": [
        {
          "internalType": "uint256",
          "name": "",
          "type": "uint256"
        }
      ],
      "stateMutability": "view",
      "type": "function",
      "constant": true
    },
    {
      "inputs": [
        {
          "internalType": "uint256",
          "name": "",
          "type": "uint256"
        }
      ],
      "name": "batches",
      "outputs": [
        {
          "internalType": "string",
          "name": "producer",
          "type": "string"
        },
        {
          "internalType": "uint256",
          "name": "harvestDate",
          "type": "uint256"
        },
        {
          "internalType": "string",
          "name": "originCountry",
          "type": "string"
        },
        {
          "internalType": "string",
          "name": "productionProcess",
          "type": "string"
        },
        {
          "internalType": "string",
          "name": "labAnalysisResults",
          "type": "string"
        }
      ],
      "stateMutability": "view",
      "type": "function",
      "constant": true
    },
    {
      "inputs": [
        {
          "internalType": "uint256",
          "name": "tokenId",
          "type": "uint256"
        }
      ],
      "name": "getApproved",
      "outputs": [
        {
          "internalType": "address",
          "name": "",
          "type": "address"
        }
      ],
      "stateMutability": "view",
      "type": "function",
      "constant": true
    },
    {
      "inputs": [
        {
          "internalType": "address",
          "name": "owner",
          "type": "address"
        },
        {
          "internalType": "address",
          "name": "operator",
          "type": "address"
        }
      ],
      "name": "isApprovedForAll",
      "outputs": [
        {
          "internalType": "bool",
          "name": "",
          "type": "bool"
        }
      ],
      "stateMutability": "view",
      "type": "function",
      "constant": true
    },
    {
      "inputs": [],
      "name": "name",
      "outputs": [
        {
          "internalType": "string",
          "name": "",
          "type": "string"
        }
      ],
      "stateMutability": "view",
      "type": "function",
      "constant": true
    },
    {
      "inputs": [],
      "name": "nextTokenId",
      "outputs": [
        {
          "internalType": "uint256",
          "name": "",
          "type": "uint256"
        }
      ],
      "stateMutability": "view",
      "type": "function",
      "constant": true
    },
    {
      "inputs": [
        {
          "internalType": "uint256",
          "name": "tokenId",
          "type": "uint256"
        }
      ],
      "name": "ownerOf",
      "outputs": [
        {
          "internalType": "address",
          "name": "",
          "type": "address"
        }
      ],
      "stateMutability": "view",
      "type": "function",
      "constant": true
    },
    {
      "inputs": [
        {
          "internalType": "address",
          "name": "from",
          "type": "address"
        },
        {
          "internalType": "address",
          "name": "to",
          "type": "address"
        },
        {
          "internalType": "uint256",
          "name": "tokenId",
          "type": "uint256"
        }
      ],
      "name": "safeTransferFrom",
      "outputs": [],
      "stateMutability": "nonpayable",
      "type": "function"
    },
    {
      "inputs": [
        {
          "internalType": "address",
          "name": "from",
          "type": "address"
        },
        {
          "internalType": "address",
          "name": "to",
          "type": "address"
        },
        {
          "internalType": "uint256",
          "name": "tokenId",
          "type": "uint256"
        },
        {
          "internalType": "bytes",
          "name": "data",
          "type": "bytes"
        }
      ],
      "name": "safeTransferFrom",
      "outputs": [],
      "stateMutability": "nonpayable",
      "type": "function"
    },
    {
      "inputs": [
        {
          "internalType": "address",
          "name": "operator",
          "type": "address"
        },
        {
          "internalType": "bool",
          "name": "approved",
          "type": "bool"
        }
      ],
      "name": "setApprovalForAll",
      "outputs": [],
      "stateMutability": "nonpayable",
      "type": "function"
    },
    {
      "inputs": [
        {
          "internalType": "bytes4",
          "name": "interfaceId",
          "type": "bytes4"
        }
      ],
      "name": "supportsInterface",
      "outputs": [
        {
          "internalType": "bool",
          "name": "",
          "type": "bool"
        }
      ],
      "stateMutability": "view",
      "type": "function",
      "constant": true
    },
    {
      "inputs": [],
      "name": "symbol",
      "outputs": [
        {
          "internalType": "string",
          "name": "",
          "type": "string"
        }
      ],
      "stateMutability": "view",
      "type": "function",
      "constant": true
    },
    {
      "inputs": [
        {
          "internalType": "uint256",
          "name": "tokenId",
          "type": "uint256"
        }
      ],
      "name": "tokenURI",
      "outputs": [
        {
          "internalType": "string",
          "name": "",
          "type": "string"
        }
      ],
      "stateMutability": "view",
      "type": "function",
      "constant": true
    },
    {
      "inputs": [
        {
          "internalType": "address",
          "name": "from",
          "type": "address"
        },
        {
          "internalType": "address",
          "name": "to",
          "type": "address"
        },
        {
          "internalType": "uint256",
          "name": "tokenId",
          "type": "uint256"
        }
      ],
      "name": "transferFrom",
      "outputs": [],
      "stateMutability": "nonpayable",
      "type": "function"
    },
    {
      "inputs": [
        {
          "internalType": "string",
          "name": "producer",
          "type": "string"
        },
        {
          "internalType": "uint256",
          "name": "harvestDate",
          "type": "uint256"
        },
        {
          "internalType": "string",
          "name": "originCountry",
          "type": "string"
        },
        {
          "internalType": "string",
          "name": "productionProcess",
          "type": "string"
        },
        {
          "internalType": "string",
          "name": "labAnalysisResults",
          "type": "string"
        }
      ],
      "name": "mintOliveOilBatch",
      "outputs": [],
      "stateMutability": "nonpayable",
      "type": "function"
    },
    {
      "inputs": [
        {
          "internalType": "uint256",
          "name": "tokenId",
          "type": "uint256"
        },
        {
          "internalType": "address",
          "name": "to",
          "type": "address"
        }
      ],
      "name": "transferOliveOilBatch",
      "outputs": [],
      "stateMutability": "nonpayable",
      "type": "function"
    },
    {
      "inputs": [],
      "name": "totalSupply",
      "outputs": [
        {
          "internalType": "uint256",
          "name": "",
          "type": "uint256"
        }
      ],
      "stateMutability": "view",
      "type": "function",
      "constant": true
    }
  ],
  "bytecode": "0x60806040523480156200001157600080fd5b506040518060400160405280601881526020017f4f6c6976654f696c5175616c6974794173737572616e636500000000000000008152506040518060400160405280600481526020017f4f4f51410000000000000000000000000000000000000000000000000000000081525081600090816200008f91906200032c565b508060019081620000a191906200032c565b505050600160068190555062000413565b600081519050919050565b7f4e487b7100000000000000000000000000000000000000000000000000000000600052604160045260246000fd5b7f4e487b7100000000000000000000000000000000000000000000000000000000600052602260045260246000fd5b600060028204905060018216806200013457607f821691505b6020821081036200014a5762000149620000ec565b5b50919050565b60008190508160005260206000209050919050565b60006020601f8301049050919050565b600082821b905092915050565b600060088302620001b47fffffffffffffffffffffffffffffffffffffffffffffffffffffffffffffffff8262000175565b620001c0868362000175565b95508019841693508086168417925050509392505050565b6000819050919050565b6000819050919050565b60006200020d620002076200020184620001d8565b620001e2565b620001d8565b9050919050565b6000819050919050565b6200022983620001ec565b62000241620002388262000214565b84845462000182565b825550505050565b600090565b6200025862000249565b620002658184846200021e565b505050565b5b818110156200028d57620002816000826200024e565b6001810190506200026b565b5050565b601f821115620002dc57620002a68162000150565b620002b18462000165565b81016020851015620002c1578190505b620002d9620002d08562000165565b8301826200026a565b50505b505050565b600082821c905092915050565b60006200030160001984600802620002e1565b1980831691505092915050565b60006200031c8383620002ee565b9150826002028217905092915050565b6200033782620000b2565b67ffffffffffffffff811115620003535762000352620000bd565b5b6200035f82546200011b565b6200036c82828562000291565b600060209050601f831160018114620003a457600084156200038f578287015190505b6200039b85826200030e565b8655506200040b565b601f198416620003b48662000150565b60005b82811015620003de57848901518255600182019150602085019450602081019050620003b7565b86831015620003fe5784890151620003fa601f891682620002ee565b8355505b6001600288020188555050505b505050505050565b612f0480620004236000396000f3fe608060405234801561001057600080fd5b50600436106101165760003560e01c806367818597116100a2578063a22cb46511610071578063a22cb465146102df578063b32c4d8d146102fb578063b88d4fde1461032f578063c87b56dd1461034b578063e985e9c51461037b57610116565b8063678185971461025757806370a082311461027357806375794a3c146102a357806395d89b41146102c157610116565b806318160ddd116100e957806318160ddd146101b55780631bd5f146146101d357806323b872dd146101ef57806342842e0e1461020b5780636352211e1461022757610116565b806301ffc9a71461011b57806306fdde031461014b578063081812fc14610169578063095ea7b314610199575b600080fd5b61013560048036038101906101309190611c0a565b6103ab565b6040516101429190611c52565b60405180910390f35b61015361048d565b6040516101609190611cfd565b60405180910390f35b610183600480360381019061017e9190611d55565b61051f565b6040516101909190611dc3565b60405180910390f35b6101b360048036038101906101ae9190611e0a565b610565565b005b6101bd61067c565b6040516101ca9190611e59565b60405180910390f35b6101ed60048036038101906101e89190611e74565b610692565b005b61020960048036038101906102049190611eb4565b610717565b005b61022560048036038101906102209190611eb4565b610777565b005b610241600480360381019061023c9190611d55565b610797565b60405161024e9190611dc3565b60405180910390f35b610271600480360381019061026c919061203c565b61081d565b005b61028d60048036038101906102889190612127565b6108b7565b60405161029a9190611e59565b60405180910390f35b6102ab61096e565b6040516102b89190611e59565b60405180910390f35b6102c9610974565b6040516102d69190611cfd565b60405180910390f35b6102f960048036038101906102f49190612180565b610a06565b005b61031560048036038101906103109190611d55565b610a1c565b6040516103269594939291906121c0565b60405180910390f35b610349600480360381019061034491906122d0565b610c72565b005b61036560048036038101906103609190611d55565b610cd4565b6040516103729190611cfd565b60405180910390f35b61039560048036038101906103909190612353565b610d3c565b6040516103a29190611c52565b60405180910390f35b60007f80ac58cd000000000000000000000000000000000000000000000000000000007bffffffffffffffffffffffffffffffffffffffffffffffffffffffff1916827bffffffffffffffffffffffffffffffffffffffffffffffffffffffff1916148061047657507f5b5e139f000000000000000000000000000000000000000000000000000000007bffffffffffffffffffffffffffffffffffffffffffffffffffffffff1916827bffffffffffffffffffffffffffffffffffffffffffffffffffffffff1916145b80610486575061048582610dd0565b5b9050919050565b60606000805461049c906123c2565b80601f01602080910402602001604051908101604052809291908181526020018280546104c8906123c2565b80156105155780601f106104ea57610100808354040283529160200191610515565b820191906000526020600020905b8154815290600101906020018083116104f857829003601f168201915b5050505050905090565b600061052a82610e3a565b6004600083815260200190815260200160002060009054906101000a900473ffffffffffffffffffffffffffffffffffffffff169050919050565b600061057082610797565b90508073ffffffffffffffffffffffffffffffffffffffff168373ffffffffffffffffffffffffffffffffffffffff16036105e0576040517f08c379a00000000000000000000000000000000000000000000000000000000081526004016105d790612465565b60405180910390fd5b8073ffffffffffffffffffffffffffffffffffffffff166105ff610e85565b73ffffffffffffffffffffffffffffffffffffffff16148061062e575061062d81610628610e85565b610d3c565b5b61066d576040517f08c379a0000000000000000000000000000000000000000000000000000000008152600401610664906124f7565b60405180910390fd5b6106778383610e8d565b505050565b6000600160065461068d9190612546565b905090565b3373ffffffffffffffffffffffffffffffffffffffff166106b283610797565b73ffffffffffffffffffffffffffffffffffffffff1614610708576040517f08c379a00000000000000000000000000000000000000000000000000000000081526004016106ff906125ec565b60405180910390fd5b610713338284610777565b5050565b610728610722610e85565b82610f46565b610767576040517f08c379a000000000000000000000000000000000000000000000000000000000815260040161075e9061267e565b60405180910390fd5b610772838383610fdb565b505050565b61079283838360405180602001604052806000815250610c72565b505050565b6000806107a3836112d4565b9050600073ffffffffffffffffffffffffffffffffffffffff168173ffffffffffffffffffffffffffffffffffffffff1603610814576040517f08c379a000000000000000000000000000000000000000000000000000000000815260040161080b906126ea565b60405180910390fd5b80915050919050565b6000600654905061082e3382611311565b60006007600083815260200190815260200160002090508681600001908161085691906128b6565b508581600101819055508481600201908161087191906128b6565b508381600301908161088391906128b6565b508281600401908161089591906128b6565b50600660008154809291906108a990612988565b919050555050505050505050565b60008073ffffffffffffffffffffffffffffffffffffffff168273ffffffffffffffffffffffffffffffffffffffff1603610927576040517f08c379a000000000000000000000000000000000000000000000000000000000815260040161091e90612a42565b60405180910390fd5b600360008373ffffffffffffffffffffffffffffffffffffffff1673ffffffffffffffffffffffffffffffffffffffff168152602001908152602001600020549050919050565b60065481565b606060018054610983906123c2565b80601f01602080910402602001604051908101604052809291908181526020018280546109af906123c2565b80156109fc5780601f106109d1576101008083540402835291602001916109fc565b820191906000526020600020905b8154815290600101906020018083116109df57829003601f168201915b5050505050905090565b610a18610a11610e85565b838361132f565b5050565b6007602052806000526040600020600091509050806000018054610a3f906123c2565b80601f0160208091040260200160405190810160405280929190818152602001828054610a6b906123c2565b8015610ab85780601f10610a8d57610100808354040283529160200191610ab8565b820191906000526020600020905b815481529060010190602001808311610a9b57829003601f168201915b505050505090806001015490806002018054610ad3906123c2565b80601f0160208091040260200160405190810160405280929190818152602001828054610aff906123c2565b8015610b4c5780601f10610b2157610100808354040283529160200191610b4c565b820191906000526020600020905b815481529060010190602001808311610b2f57829003601f168201915b505050505090806003018054610b61906123c2565b80601f0160208091040260200160405190810160405280929190818152602001828054610b8d906123c2565b8015610bda5780601f10610baf57610100808354040283529160200191610bda565b820191906000526020600020905b815481529060010190602001808311610bbd57829003601f168201915b505050505090806004018054610bef906123c2565b80601f0160208091040260200160405190810160405280929190818152602001828054610c1b906123c2565b8015610c685780601f10610c3d57610100808354040283529160200191610c68565b820191906000526020600020905b815481529060010190602001808311610c4b57829003601f168201915b5050505050905085565b610c83610c7d610e85565b83610f46565b610cc2576040517f08c379a0000000000000000000000000000000000000000000000000000000008152600401610cb99061267e565b60405180910390fd5b610cce8484848461149b565b50505050565b6060610cdf82610e3a565b6000610ce96114f7565b90506000815111610d095760405180602001604052806000815250610d34565b80610d138461150e565b604051602001610d24929190612a9e565b6040516020818303038152906040525b915050919050565b6000600560008473ffffffffffffffffffffffffffffffffffffffff1673ffffffffffffffffffffffffffffffffffffffff16815260200190815260200160002060008373ffffffffffffffffffffffffffffffffffffffff1673ffffffffffffffffffffffffffffffffffffffff16815260200190815260200160002060009054906101000a900460ff16905092915050565b60007f01ffc9a7000000000000000000000000000000000000000000000000000000007bffffffffffffffffffffffffffffffffffffffffffffffffffffffff1916827bffffffffffffffffffffffffffffffffffffffffffffffffffffffff1916149050919050565b610e43816115dc565b610e82576040517f08c379a0000000000000000000000000000000000000000000000000000000008152600401610e79906126ea565b60405180910390fd5b50565b600033905090565b816004600083815260200190815260200160002060006101000a81548173ffffffffffffffffffffffffffffffffffffffff021916908373ffffffffffffffffffffffffffffffffffffffff160217905550808273ffffffffffffffffffffffffffffffffffffffff16610f0083610797565b73ffffffffffffffffffffffffffffffffffffffff167f8c5be1e5ebec7d5bd14f71427d1e84f3dd0314c0f7b2291e5b200ac8c7c3b92560405160405180910390a45050565b600080610f5283610797565b90508073ffffffffffffffffffffffffffffffffffffffff168473ffffffffffffffffffffffffffffffffffffffff161480610f945750610f938185610d3c565b5b80610fd257508373ffffffffffffffffffffffffffffffffffffffff16610fba8461051f565b73ffffffffffffffffffffffffffffffffffffffff16145b91505092915050565b8273ffffffffffffffffffffffffffffffffffffffff16610ffb82610797565b73ffffffffffffffffffffffffffffffffffffffff1614611051576040517f08c379a000000000000000000000000000000000000000000000000000000000815260040161104890612b34565b60405180910390fd5b600073ffffffffffffffffffffffffffffffffffffffff168273ffffffffffffffffffffffffffffffffffffffff16036110c0576040517f08c379a00000000000000000000000000000000000000000000000000000000081526004016110b790612bc6565b60405180910390fd5b6110cd838383600161161d565b8273ffffffffffffffffffffffffffffffffffffffff166110ed82610797565b73ffffffffffffffffffffffffffffffffffffffff1614611143576040517f08c379a000000000000000000000000000000000000000000000000000000000815260040161113a90612b34565b60405180910390fd5b6004600082815260200190815260200160002060006101000a81549073ffffffffffffffffffffffffffffffffffffffff02191690556001600360008573ffffffffffffffffffffffffffffffffffffffff1673ffffffffffffffffffffffffffffffffffffffff168152602001908152602001600020600082825403925050819055506001600360008473ffffffffffffffffffffffffffffffffffffffff1673ffffffffffffffffffffffffffffffffffffffff16815260200190815260200160002060008282540192505081905550816002600083815260200190815260200160002060006101000a81548173ffffffffffffffffffffffffffffffffffffffff021916908373ffffffffffffffffffffffffffffffffffffffff160217905550808273ffffffffffffffffffffffffffffffffffffffff168473ffffffffffffffffffffffffffffffffffffffff167fddf252ad1be2c89b69c2b068fc378daa952ba7f163c4a11628f55a4df523b3ef60405160405180910390a46112cf8383836001611623565b505050565b60006002600083815260200190815260200160002060009054906101000a900473ffffffffffffffffffffffffffffffffffffffff169050919050565b61132b828260405180602001604052806000815250611629565b5050565b8173ffffffffffffffffffffffffffffffffffffffff168373ffffffffffffffffffffffffffffffffffffffff160361139d576040517f08c379a000000000000000000000000000000000000000000000000000000000815260040161139490612c32565b60405180910390fd5b80600560008573ffffffffffffffffffffffffffffffffffffffff1673ffffffffffffffffffffffffffffffffffffffff16815260200190815260200160002060008473ffffffffffffffffffffffffffffffffffffffff1673ffffffffffffffffffffffffffffffffffffffff16815260200190815260200160002060006101000a81548160ff0219169083151502179055508173ffffffffffffffffffffffffffffffffffffffff168373ffffffffffffffffffffffffffffffffffffffff167f17307eab39ab6107e8899845ad3d59bd9653f200f220920489ca2b5937696c318360405161148e9190611c52565b60405180910390a3505050565b6114a6848484610fdb565b6114b284848484611684565b6114f1576040517f08c379a00000000000000000000000000000000000000000000000000000000081526004016114e890612cc4565b60405180910390fd5b50505050565b606060405180602001604052806000815250905090565b60606000600161151d8461180b565b01905060008167ffffffffffffffff81111561153c5761153b611f11565b5b6040519080825280601f01601f19166020018201604052801561156e5781602001600182028036833780820191505090505b509050600082602001820190505b6001156115d1578080600190039150507f3031323334353637383961626364656600000000000000000000000000000000600a86061a8153600a85816115c5576115c4612ce4565b5b0494506000850361157c575b819350505050919050565b60008073ffffffffffffffffffffffffffffffffffffffff166115fe836112d4565b73ffffffffffffffffffffffffffffffffffffffff1614159050919050565b50505050565b50505050565b611633838361195e565b6116406000848484611684565b61167f576040517f08c379a000000000000000000000000000000000000000000000000000000000815260040161167690612cc4565b60405180910390fd5b505050565b60006116a58473ffffffffffffffffffffffffffffffffffffffff16611b7b565b156117fe578373ffffffffffffffffffffffffffffffffffffffff1663150b7a026116ce610e85565b8786866040518563ffffffff1660e01b81526004016116f09493929190612d68565b6020604051808303816000875af192505050801561172c57506040513d601f19601f820116820180604052508101906117299190612dc9565b60015b6117ae573d806000811461175c576040519150601f19603f3d011682016040523d82523d6000602084013e611761565b606091505b5060008151036117a6576040517f08c379a000000000000000000000000000000000000000000000000000000000815260040161179d90612cc4565b60405180910390fd5b805181602001fd5b63150b7a0260e01b7bffffffffffffffffffffffffffffffffffffffffffffffffffffffff1916817bffffffffffffffffffffffffffffffffffffffffffffffffffffffff191614915050611803565b600190505b949350505050565b600080600090507a184f03e93ff9f4daa797ed6e38ed64bf6a1f0100000000000000008310611869577a184f03e93ff9f4daa797ed6e38ed64bf6a1f010000000000000000838161185f5761185e612ce4565b5b0492506040810190505b6d04ee2d6d415b85acef810000000083106118a6576d04ee2d6d415b85acef8100000000838161189c5761189b612ce4565b5b0492506020810190505b662386f26fc1000083106118d557662386f26fc1000083816118cb576118ca612ce4565b5b0492506010810190505b6305f5e10083106118fe576305f5e10083816118f4576118f3612ce4565b5b0492506008810190505b612710831061192357612710838161191957611918612ce4565b5b0492506004810190505b60648310611946576064838161193c5761193b612ce4565b5b0492506002810190505b600a8310611955576001810190505b80915050919050565b600073ffffffffffffffffffffffffffffffffffffffff168273ffffffffffffffffffffffffffffffffffffffff16036119cd576040517f08c379a00000000000000000000000000000000000000000000000000000000081526004016119c490612e42565b60405180910390fd5b6119d6816115dc565b15611a16576040517f08c379a0000000000000000000000000000000000000000000000000000000008152600401611a0d90612eae565b60405180910390fd5b611a2460008383600161161d565b611a2d816115dc565b15611a6d576040517f08c379a0000000000000000000000000000000000000000000000000000000008152600401611a6490612eae565b60405180910390fd5b6001600360008473ffffffffffffffffffffffffffffffffffffffff1673ffffffffffffffffffffffffffffffffffffffff16815260200190815260200160002060008282540192505081905550816002600083815260200190815260200160002060006101000a81548173ffffffffffffffffffffffffffffffffffffffff021916908373ffffffffffffffffffffffffffffffffffffffff160217905550808273ffffffffffffffffffffffffffffffffffffffff16600073ffffffffffffffffffffffffffffffffffffffff167fddf252ad1be2c89b69c2b068fc378daa952ba7f163c4a11628f55a4df523b3ef60405160405180910390a4611b77600083836001611623565b5050565b6000808273ffffffffffffffffffffffffffffffffffffffff163b119050919050565b6000604051905090565b600080fd5b600080fd5b60007fffffffff0000000000000000000000000000000000000000000000000000000082169050919050565b611be781611bb2565b8114611bf257600080fd5b50565b600081359050611c0481611bde565b92915050565b600060208284031215611c2057611c1f611ba8565b5b6000611c2e84828501611bf5565b91505092915050565b60008115159050919050565b611c4c81611c37565b82525050565b6000602082019050611c676000830184611c43565b92915050565b600081519050919050565b600082825260208201905092915050565b60005b83811015611ca7578082015181840152602081019050611c8c565b60008484015250505050565b6000601f19601f8301169050919050565b6000611ccf82611c6d565b611cd98185611c78565b9350611ce9818560208601611c89565b611cf281611cb3565b840191505092915050565b60006020820190508181036000830152611d178184611cc4565b905092915050565b6000819050919050565b611d3281611d1f565b8114611d3d57600080fd5b50565b600081359050611d4f81611d29565b92915050565b600060208284031215611d6b57611d6a611ba8565b5b6000611d7984828501611d40565b91505092915050565b600073ffffffffffffffffffffffffffffffffffffffff82169050919050565b6000611dad82611d82565b9050919050565b611dbd81611da2565b82525050565b6000602082019050611dd86000830184611db4565b92915050565b611de781611da2565b8114611df257600080fd5b50565b600081359050611e0481611dde565b92915050565b60008060408385031215611e2157611e20611ba8565b5b6000611e2f85828601611df5565b9250506020611e4085828601611d40565b9150509250929050565b611e5381611d1f565b82525050565b6000602082019050611e6e6000830184611e4a565b92915050565b60008060408385031215611e8b57611e8a611ba8565b5b6000611e9985828601611d40565b9250506020611eaa85828601611df5565b9150509250929050565b600080600060608486031215611ecd57611ecc611ba8565b5b6000611edb86828701611df5565b9350506020611eec86828701611df5565b9250506040611efd86828701611d40565b9150509250925092565b600080fd5b600080fd5b7f4e487b7100000000000000000000000000000000000000000000000000000000600052604160045260246000fd5b611f4982611cb3565b810181811067ffffffffffffffff82111715611f6857611f67611f11565b5b80604052505050565b6000611f7b611b9e565b9050611f878282611f40565b919050565b600067ffffffffffffffff821115611fa757611fa6611f11565b5b611fb082611cb3565b9050602081019050919050565b82818337600083830152505050565b6000611fdf611fda84611f8c565b611f71565b905082815260208101848484011115611ffb57611ffa611f0c565b5b612006848285611fbd565b509392505050565b600082601f83011261202357612022611f07565b5b8135612033848260208601611fcc565b91505092915050565b600080600080600060a0868803121561205857612057611ba8565b5b600086013567ffffffffffffffff81111561207657612075611bad565b5b6120828882890161200e565b955050602061209388828901611d40565b945050604086013567ffffffffffffffff8111156120b4576120b3611bad565b5b6120c08882890161200e565b935050606086013567ffffffffffffffff8111156120e1576120e0611bad565b5b6120ed8882890161200e565b925050608086013567ffffffffffffffff81111561210e5761210d611bad565b5b61211a8882890161200e565b9150509295509295909350565b60006020828403121561213d5761213c611ba8565b5b600061214b84828501611df5565b91505092915050565b61215d81611c37565b811461216857600080fd5b50565b60008135905061217a81612154565b92915050565b6000806040838503121561219757612196611ba8565b5b60006121a585828601611df5565b92505060206121b68582860161216b565b9150509250929050565b600060a08201905081810360008301526121da8188611cc4565b90506121e96020830187611e4a565b81810360408301526121fb8186611cc4565b9050818103606083015261220f8185611cc4565b905081810360808301526122238184611cc4565b90509695505050505050565b600067ffffffffffffffff82111561224a57612249611f11565b5b61225382611cb3565b9050602081019050919050565b600061227361226e8461222f565b611f71565b90508281526020810184848401111561228f5761228e611f0c565b5b61229a848285611fbd565b509392505050565b600082601f8301126122b7576122b6611f07565b5b81356122c7848260208601612260565b91505092915050565b600080600080608085870312156122ea576122e9611ba8565b5b60006122f887828801611df5565b945050602061230987828801611df5565b935050604061231a87828801611d40565b925050606085013567ffffffffffffffff81111561233b5761233a611bad565b5b612347878288016122a2565b91505092959194509250565b6000806040838503121561236a57612369611ba8565b5b600061237885828601611df5565b925050602061238985828601611df5565b9150509250929050565b7f4e487b7100000000000000000000000000000000000000000000000000000000600052602260045260246000fd5b600060028204905060018216806123da57607f821691505b6020821081036123ed576123ec612393565b5b50919050565b7f4552433732313a20617070726f76616c20746f2063757272656e74206f776e6560008201527f7200000000000000000000000000000000000000000000000000000000000000602082015250565b600061244f602183611c78565b915061245a826123f3565b604082019050919050565b6000602082019050818103600083015261247e81612442565b9050919050565b7f4552433732313a20617070726f76652063616c6c6572206973206e6f7420746f60008201527f6b656e206f776e6572206f7220617070726f76656420666f7220616c6c000000602082015250565b60006124e1603d83611c78565b91506124ec82612485565b604082019050919050565b60006020820190508181036000830152612510816124d4565b9050919050565b7f4e487b7100000000000000000000000000000000000000000000000000000000600052601160045260246000fd5b600061255182611d1f565b915061255c83611d1f565b925082820390508181111561257457612573612517565b5b92915050565b7f596f7520617265206e6f7420746865206f776e6572206f66207468697320626160008201527f7463680000000000000000000000000000000000000000000000000000000000602082015250565b60006125d6602383611c78565b91506125e18261257a565b604082019050919050565b60006020820190508181036000830152612605816125c9565b9050919050565b7f4552433732313a2063616c6c6572206973206e6f7420746f6b656e206f776e6560008201527f72206f7220617070726f76656400000000000000000000000000000000000000602082015250565b6000612668602d83611c78565b91506126738261260c565b604082019050919050565b600060208201905081810360008301526126978161265b565b9050919050565b7f4552433732313a20696e76616c696420746f6b656e2049440000000000000000600082015250565b60006126d4601883611c78565b91506126df8261269e565b602082019050919050565b60006020820190508181036000830152612703816126c7565b9050919050565b60008190508160005260206000209050919050565b60006020601f8301049050919050565b600082821b905092915050565b60006008830261276c7fffffffffffffffffffffffffffffffffffffffffffffffffffffffffffffffff8261272f565b612776868361272f565b95508019841693508086168417925050509392505050565b6000819050919050565b60006127b36127ae6127a984611d1f565b61278e565b611d1f565b9050919050565b6000819050919050565b6127cd83612798565b6127e16127d9826127ba565b84845461273c565b825550505050565b600090565b6127f66127e9565b6128018184846127c4565b505050565b5b818110156128255761281a6000826127ee565b600181019050612807565b5050565b601f82111561286a5761283b8161270a565b6128448461271f565b81016020851015612853578190505b61286761285f8561271f565b830182612806565b50505b505050565b600082821c905092915050565b600061288d6000198460080261286f565b1980831691505092915050565b60006128a6838361287c565b9150826002028217905092915050565b6128bf82611c6d565b67ffffffffffffffff8111156128d8576128d7611f11565b5b6128e282546123c2565b6128ed828285612829565b600060209050601f831160018114612920576000841561290e578287015190505b612918858261289a565b865550612980565b601f19841661292e8661270a565b60005b8281101561295657848901518255600182019150602085019450602081019050612931565b86831015612973578489015161296f601f89168261287c565b8355505b6001600288020188555050505b505050505050565b600061299382611d1f565b91507fffffffffffffffffffffffffffffffffffffffffffffffffffffffffffffffff82036129c5576129c4612517565b5b600182019050919050565b7f4552433732313a2061646472657373207a65726f206973206e6f74206120766160008201527f6c6964206f776e65720000000000000000000000000000000000000000000000602082015250565b6000612a2c602983611c78565b9150612a37826129d0565b604082019050919050565b60006020820190508181036000830152612a5b81612a1f565b9050919050565b600081905092915050565b6000612a7882611c6d565b612a828185612a62565b9350612a92818560208601611c89565b80840191505092915050565b6000612aaa8285612a6d565b9150612ab68284612a6d565b91508190509392505050565b7f4552433732313a207472616e736665722066726f6d20696e636f72726563742060008201527f6f776e6572000000000000000000000000000000000000000000000000000000602082015250565b6000612b1e602583611c78565b9150612b2982612ac2565b604082019050919050565b60006020820190508181036000830152612b4d81612b11565b9050919050565b7f4552433732313a207472616e7366657220746f20746865207a65726f2061646460008201527f7265737300000000000000000000000000000000000000000000000000000000602082015250565b6000612bb0602483611c78565b9150612bbb82612b54565b604082019050919050565b60006020820190508181036000830152612bdf81612ba3565b9050919050565b7f4552433732313a20617070726f766520746f2063616c6c657200000000000000600082015250565b6000612c1c601983611c78565b9150612c2782612be6565b602082019050919050565b60006020820190508181036000830152612c4b81612c0f565b9050919050565b7f4552433732313a207472616e7366657220746f206e6f6e20455243373231526560008201527f63656976657220696d706c656d656e7465720000000000000000000000000000602082015250565b6000612cae603283611c78565b9150612cb982612c52565b604082019050919050565b60006020820190508181036000830152612cdd81612ca1565b9050919050565b7f4e487b7100000000000000000000000000000000000000000000000000000000600052601260045260246000fd5b600081519050919050565b600082825260208201905092915050565b6000612d3a82612d13565b612d448185612d1e565b9350612d54818560208601611c89565b612d5d81611cb3565b840191505092915050565b6000608082019050612d7d6000830187611db4565b612d8a6020830186611db4565b612d976040830185611e4a565b8181036060830152612da98184612d2f565b905095945050505050565b600081519050612dc381611bde565b92915050565b600060208284031215612ddf57612dde611ba8565b5b6000612ded84828501612db4565b91505092915050565b7f4552433732313a206d696e7420746f20746865207a65726f2061646472657373600082015250565b6000612e2c602083611c78565b9150612e3782612df6565b602082019050919050565b60006020820190508181036000830152612e5b81612e1f565b9050919050565b7f4552433732313a20746f6b656e20616c7265616479206d696e74656400000000600082015250565b6000612e98601c83611c78565b9150612ea382612e62565b602082019050919050565b60006020820190508181036000830152612ec781612e8b565b905091905056fea2646970667358221220f0fd5238dd88fc879378d52075612aa7fdc6e2d6bbb0125a2d879f27d9744ca664736f6c63430008130033",
  "immutableReferences": {},
  "source": "// SPDX-License-Identifier: UNLICENSED\r\n// DecentAPI - 2023\r\npragma solidity ^0.8.0;\r\n\r\nimport \"@openzeppelin/contracts/token/ERC721/ERC721.sol\";\r\n\r\ncontract OliveOilQualityAssurance is ERC721 {\r\n    uint256 public nextTokenId;\r\n    \r\n    struct OliveOilBatch {\r\n        string producer;\r\n        uint256 harvestDate;\r\n        string originCountry;\r\n        string productionProcess;\r\n        string labAnalysisResults;\r\n        // more fields to be added\r\n    }\r\n    \r\n    mapping(uint256 => OliveOilBatch) public batches;\r\n    \r\n    constructor() ERC721(\"OliveOilQualityAssurance\", \"OOQA\") {\r\n        nextTokenId = 1;\r\n    }\r\n    \r\n    function mintOliveOilBatch(\r\n        string memory producer,\r\n        uint256 harvestDate,\r\n        string memory originCountry,\r\n        string memory productionProcess,\r\n        string memory labAnalysisResults\r\n    ) external {\r\n        uint256 tokenId = nextTokenId;\r\n        _safeMint(msg.sender, tokenId);\r\n        \r\n        OliveOilBatch storage newBatch = batches[tokenId];\r\n        newBatch.producer = producer;\r\n        newBatch.harvestDate = harvestDate;\r\n        newBatch.originCountry = originCountry;\r\n        newBatch.productionProcess = productionProcess;\r\n        newBatch.labAnalysisResults = labAnalysisResults;\r\n        \r\n        nextTokenId++;\r\n    }\r\n    \r\n    function transferOliveOilBatch(uint256 tokenId, address to) external {\r\n        require(ownerOf(tokenId) == msg.sender, \"You are not the owner of this batch\");\r\n        safeTransferFrom(msg.sender, to, tokenId);\r\n    }\r\n    \r\n    function totalSupply() external view returns (uint256) {\r\n        return nextTokenId - 1;\r\n    }\r\n}\r\n",
  "sourcePath": "C:\\Users\\Salah\\projects\\web3_qanft\\contracts\\OliveOilQualityAssurance.sol",
  "compiler": {
    "name": "solc",
    "version": "0.8.19+commit.7dd6d404.Emscripten.clang"
  },
  "schemaVersion": "3.4.14",
  "updatedAt": "2023-06-29T20:23:15.484Z",
  "networkType": "ethereum",
  "devdoc": {
    "events": {
      "Approval(address,address,uint256)": {
        "details": "Emitted when `owner` enables `approved` to manage the `tokenId` token."
      },
      "ApprovalForAll(address,address,bool)": {
        "details": "Emitted when `owner` enables or disables (`approved`) `operator` to manage all of its assets."
      },
      "Transfer(address,address,uint256)": {
        "details": "Emitted when `tokenId` token is transferred from `from` to `to`."
      }
    },
    "kind": "dev",
    "methods": {
      "approve(address,uint256)": {
        "details": "See {IERC721-approve}."
      },
      "balanceOf(address)": {
        "details": "See {IERC721-balanceOf}."
      },
      "getApproved(uint256)": {
        "details": "See {IERC721-getApproved}."
      },
      "isApprovedForAll(address,address)": {
        "details": "See {IERC721-isApprovedForAll}."
      },
      "name()": {
        "details": "See {IERC721Metadata-name}."
      },
      "ownerOf(uint256)": {
        "details": "See {IERC721-ownerOf}."
      },
      "safeTransferFrom(address,address,uint256)": {
        "details": "See {IERC721-safeTransferFrom}."
      },
      "safeTransferFrom(address,address,uint256,bytes)": {
        "details": "See {IERC721-safeTransferFrom}."
      },
      "setApprovalForAll(address,bool)": {
        "details": "See {IERC721-setApprovalForAll}."
      },
      "supportsInterface(bytes4)": {
        "details": "See {IERC165-supportsInterface}."
      },
      "symbol()": {
        "details": "See {IERC721Metadata-symbol}."
      },
      "tokenURI(uint256)": {
        "details": "See {IERC721Metadata-tokenURI}."
      },
      "transferFrom(address,address,uint256)": {
        "details": "See {IERC721-transferFrom}."
      }
    },
    "version": 1
  },
  "userdoc": {
    "kind": "user",
    "methods": {},
    "version": 1
  }
}